:02000000F82BDB
:06000600000000000800EC
:10000C000F3083120313FC004730FD00FD0B0C284E
:0A001C00FC0B0C2800000000080097
:0E002600213083120313FD00FD0B1728080084
:1000340083120317971B2028861221288616171B64
:100044002528061226280616971A2A2886112B28F0
:100054008615171A2F2806113028061503136F1852
:100064003528061436280610861403208610031734
:1000740097193E2886123F28861617194328061218
:1000840044280616971848288611492886151718F3
:100094004D2806114E28061503136F18532806140D
:1000A400542806108614032086106F1C5B28062033
:0600B4005C281320080087
:1000BA0083120313F801F9011030FC00710DF80DD9
:1000CA00F90D7408F8027508031C750FF902031874
:1000DA0075287408F80775080318750FF9070310CF
:0A00EA00F00DF10DFC0B6328080077
:0E00F400831203136E088A006D088200080054
:10010200831203136F100317120897001A206F143B
:020112000800E3
:100114008312031795010530150203189828150852
:100124001407840020308000950A8D2815081407D0
:100134008400800195031508140796000A30F40022
:10014400F5011208F0001308F1005D207808F000B2
:100154007908F1003030F00703171608840070089E
:1001640080000A30F400F5011208F0001308F100D1
:100174005D20700803179200710893000030710627
:10018400031DC62800307006031DC928CB2895031B
:040194009D2808009A
:100198000E3083120313FD00FD0BD0280000080069
:1001A800831203132230FC00F801F901FA01FB0164
:1001B800FC0303190A290310FB0CFA0CF90CF80CC0
:1001C800F30CF20CF10CF00C031CDC28FC030319F3
:1001D800FC287408F80775080318750FF9077608DE
:1001E8000318760FFA0777080318770FFB07E0283C
:1001F8007408F80775080318750FF90776080318C7
:0E020800760FFA0777080318770FFB07080038
:1002160083160313EE01EF0169088312031790009A
:10022600831603136A08831203179100803083161E
:1002360003136A06F00080307002031D2429003083
:100246006902031838290130EE000030EF00690812
:10025600003C831203179000831603136A08031CDD
:10026600013E8312031791019102831203171008AE
:10027600920011089300831603136B088312031769
:1002860094008A20063083160313EC000030ED003C
:100296006D08003C031D51296C08003C03186C29AD
:1002A6006C086B07F20001306C02F0000030031C92
:1002B600013E6D02F10070086B0784000008F00033
:1002C60072088400700880000130EC02031CED0304
:1002D6004B296B088400203080006E086F040319D8
:1002E6008A29EC01ED016C086B0784000008203AAE
:1002F600031D8129EC0A0319ED0A76290130EC0267
:10030600031CED036C086B0784002D308000080089
:10031600831203139F01C0309F046909F00070081F
:1003260083169F051F179F176908F000F00D7010C0
:10033600F00D7010F00D7010700883129F041F14DA
:10034600CC201F151F1DA9290000A5291F101E0856
:10035600F100F00183161E08F0040030F1040800D5
:1003660083160313EA01EB016908F2006908F3003A
:10037600720884000008203A031DC6296A086B0427
:10038600031DC629D3290130EA000030EB007208AC
:1003960084000008F0007308840070088000F30AE7
:1003A6007208F100F20A710884000008003A031D81
:0803B600BB296908F0000800F2
:1003BE008316031386100610061186110612861276
:1003CE00831286100610861206128611061106205A
:1003DE000620062086150615861403208610062094
:1003EE00861403208610062086140320861006200D
:1003FE00061186140320861006208614032086100C
:10040E00861186168614032086100620861206157F
:10041E0086140320861006118614032086100620EB
:10042E0086140320861006158614032086100620D7
:10043E0006118614032086108616061686150615D6
:0C044E0086140320861006206F1408009E
:10045A007A208A110A128000840AED0A0319EE0A28
:08046A00F003031D2D2A080018
:1004720083120313FB01FA01F901F801A001730DC4
:10048200F80D7408F8027508031C750FF902760856
:10049200031C760FFA027708031C770FFB02000198
:1004A200031C0130A002F30D0730FC00730DF80DA0
:1004B200F90DFA0DFB0DA00D7408731C722AF802D7
:1004C2007508031C750FF9027608031C760FFA02F1
:1004D2007708031C770FFB020001031C0130A00206
:1004E200832AF80775080318750FF90776080318A9
:1004F200760FFA0777080318770FFB070001031836
:100502000130A007F30DFC0B572A720DF80DF90DFF
:10051200FA0DFB0DA00D7408731CA12AF8027508D0
:10052200031C750FF9027608031C760FFA0277088E
:10053200031C770FFB020001031C0130A002B22A48
:10054200F80775080318750FF90776080318760F70
:10055200FA0777080318770FFB0700010318013029
:10056200A007F20D0730FC00720DF80DF90DFA0D1F
:10057200FB0DA00D7408721CD02AF8027508031C2A
:10058200750FF9027608031C760FFA027708031C2E
:10059200770FFB020001031C0130A002E12AF807D9
:1005A20075080318750FF90776080318760FFA070E
:1005B20077080318770FFB07000103180130A00723
:1005C200F20DFC0BB52A710DF80DF90DFA0DFB0DAC
:1005D200A00D7408721CFF2AF8027508031C750F1F
:1005E200F9027608031C760FFA027708031C770FCC
:1005F200FB020001031C0130A002102BF807750852
:100602000318750FF90776080318760FFA077708AB
:100612000318770FFB07000103180130A007F10D43
:100622000730FC00710DF80DF90DFA0DFB0DA00D50
:100632007408711C2E2BF8027508031C750FF90241
:100642007608031C760FFA027708031C770FFB0269
:100652000001031C0130A0023F2BF80775080318A4
:10066200750FF90776080318760FFA07770803184B
:10067200770FFB07000103180130A007F10DFC0BF7
:10068200132B700DF80DF90DFA0DFB0DA00D74086A
:10069200711C5D2BF8027508031C750FF9027608B0
:1006A200031C760FFA027708031C770FFB02000186
:1006B200031C0130A0026E2BF80775080318750F92
:1006C200F90776080318760FFA0777080318770FE9
:1006D200FB07000103180130A007F00D0730FC00F2
:1006E200700DF80DF90DFA0DFB0DA00D7408701CBC
:1006F2008C2BF8027508031C750FF9027608031C8F
:10070200760FFA027708031C770FFB020001031C25
:100712000130A0029D2BF80775080318750FF90721
:1007220076080318760FFA0777080318770FFB0786
:10073200000103180130A007F00DFC0B712B70189B
:10074200B02B7408F80775080318750FF9077608B7
:100752000318760FFA0777080318770FFB070800CC
:10076200C32B803083160313E900D62BC030E90077
:10077200D62B9430E900D62BD430E900D62B80302A
:10078200E900D62B831603136908013A0319B22B29
:100792006908023A0319B72B6908033A0319BA2BFD
:1007A2006908043A0319BD2BC02B6A03F0006908DB
:1007B200F0077008E90070088312031797001A20E7
:1007C2006F108316EC016C086B0784000008031994
:1007D200F52B6C086B078400000883120317920044
:0E07E20081208316EC0AE42B83126F140800AA
:1007F000762583160313051485140515860102302A
:10080000FB000430FC00BA30FD00FD0B052CFC0B96
:10081000052CFB0B052C0000DF210130031797008E
:100820001A200C30031797001A201A30FC00F830F9
:10083000FD00FD0B192CFC0B192C00000130831658
:10084000E9000130EA002130EB00B12302308316C9
:10085000E9000130EA003E30EB00B123033083169B
:10086000E9000130EA003430EB00B1230430831694
:10087000E9000130EA00A030EB00B1230330FB00B7
:100880000830FC007730FD00FD0B442CFC0B442CA1
:10089000FB0B442C8316D1010030831285180130E4
:1008A0008316E9008B21FF30F4000330F5005D2052
:1008B00070088316D9000130E9008B210030F20066
:1008C000F3006430F4000030F5000030F600003032
:1008D000F700D420FF30F4000330F500F601F701F3
:1008E000392270088316E1005108E900EA01E2307C
:1008F000EB000B21E230E900B3215908E900EA01DD
:10090000D230EB000B21D230E900B3216108E900BD
:10091000EA01DA30EB000B21DA30E900B3210130D3
:100920008312031797001A2001308316E900013063
:10093000EA00B430EB00B12301308316E9000B303C
:10094000EA00E230EB00B12301308316E9000E30FB
:10095000EA00CA30EB00B12302308316E90001300F
:10096000EA00BF30EB00B12302308316E9000B3000
:10097000EA00E230EB00B12302308316E9000E30CA
:10098000EA006A30EB00B12303308316E90001303E
:10099000EA004C30EB00B12303308316E9000B3042
:1009A000EA00E230EB00B12303308316E9000E3099
:1009B000EA004A30EB00B12304308316E90001302D
:1009C000EA005730EB00B1230630FB001330FC0087
:1009D000AD30FD00FD0BEA2CFC0BEA2CFB0BEA2CE6
:0809E000000000004A2CF32C7A
:100AEC00213084004C3083120313F000F930ED00F8
:100AFC000430EE002D22A030840031308312F0003F
:0C0B0C004530ED000530EE002D22080001
:1009F20047345234453445344E3448344F345534F8
:100A02005334453420344D344F344E344934543405
:060A12004F3452340034A1
:100A1800533459345334543445344D342E342E34ED
:040A28002E34003434
:100A2C0041344E344434203443344F344E345434F3
:080A3C0052344F344C340034F5
:040A44002534003421
:100A48004D346F34693473347434753472346534A6
:060A58003A3420340034A2
:100A5E0020342034203420342034203420344134C7
:100A6E00523449345334453420345034723464345F
:040A7E0020340034EC
:020A82000F342F
:060A84002A344334003463
:100A8A005434413450344934573441344E34413467
:100A9A005334483445342034503476347434203452
:080AAA004C3474346434003450
:100AB2004C3469346734683474342034203420343C
:060AC2003A342034003438
:100AC800543465346D347034203420342034203468
:060AD8003A342034003422
:0E0ADE004C346D342F346D345E3432340034B9
:02400E007A3303
:00000001FF
